{
  "contractName": "Auction",
  "abi": [
    {
      "inputs": [
        {
          "internalType": "address payable",
          "name": "_owner",
          "type": "address"
        },
        {
          "internalType": "string",
          "name": "_title",
          "type": "string"
        },
        {
          "internalType": "uint256",
          "name": "_startPrice",
          "type": "uint256"
        },
        {
          "internalType": "uint256",
          "name": "_endTime",
          "type": "uint256"
        },
        {
          "internalType": "string",
          "name": "_description",
          "type": "string"
        }
      ],
      "stateMutability": "nonpayable",
      "type": "constructor"
    },
    {
      "anonymous": false,
      "inputs": [
        {
          "indexed": false,
          "internalType": "uint256",
          "name": "time",
          "type": "uint256"
        }
      ],
      "name": "Canceled",
      "type": "event"
    },
    {
      "anonymous": false,
      "inputs": [
        {
          "indexed": false,
          "internalType": "address",
          "name": "sender",
          "type": "address"
        },
        {
          "indexed": false,
          "internalType": "uint256",
          "name": "value",
          "type": "uint256"
        },
        {
          "indexed": false,
          "internalType": "uint256",
          "name": "time",
          "type": "uint256"
        }
      ],
      "name": "PlaceBid",
      "type": "event"
    },
    {
      "anonymous": false,
      "inputs": [
        {
          "indexed": false,
          "internalType": "address",
          "name": "sender",
          "type": "address"
        },
        {
          "indexed": false,
          "internalType": "uint256",
          "name": "time",
          "type": "uint256"
        }
      ],
      "name": "WithDraw",
      "type": "event"
    },
    {
      "inputs": [],
      "name": "auctionState",
      "outputs": [
        {
          "internalType": "enum Auction.State",
          "name": "",
          "type": "uint8"
        }
      ],
      "stateMutability": "view",
      "type": "function"
    },
    {
      "inputs": [],
      "name": "bidders",
      "outputs": [
        {
          "internalType": "uint256",
          "name": "",
          "type": "uint256"
        }
      ],
      "stateMutability": "view",
      "type": "function"
    },
    {
      "inputs": [
        {
          "internalType": "address",
          "name": "",
          "type": "address"
        }
      ],
      "name": "bids",
      "outputs": [
        {
          "internalType": "uint256",
          "name": "",
          "type": "uint256"
        }
      ],
      "stateMutability": "view",
      "type": "function"
    },
    {
      "inputs": [],
      "name": "highestBidder",
      "outputs": [
        {
          "internalType": "address payable",
          "name": "",
          "type": "address"
        }
      ],
      "stateMutability": "view",
      "type": "function"
    },
    {
      "inputs": [],
      "name": "highestPrice",
      "outputs": [
        {
          "internalType": "uint256",
          "name": "",
          "type": "uint256"
        }
      ],
      "stateMutability": "view",
      "type": "function"
    },
    {
      "inputs": [],
      "name": "placeBid",
      "outputs": [
        {
          "internalType": "bool",
          "name": "",
          "type": "bool"
        }
      ],
      "stateMutability": "payable",
      "type": "function"
    },
    {
      "inputs": [],
      "name": "withDraw",
      "outputs": [],
      "stateMutability": "nonpayable",
      "type": "function"
    },
    {
      "inputs": [],
      "name": "returnYourBid",
      "outputs": [
        {
          "internalType": "uint256",
          "name": "",
          "type": "uint256"
        }
      ],
      "stateMutability": "view",
      "type": "function"
    },
    {
      "inputs": [],
      "name": "cancelAuction",
      "outputs": [
        {
          "internalType": "bool",
          "name": "success",
          "type": "bool"
        }
      ],
      "stateMutability": "nonpayable",
      "type": "function"
    },
    {
      "inputs": [],
      "name": "returnContents",
      "outputs": [
        {
          "internalType": "string",
          "name": "",
          "type": "string"
        },
        {
          "internalType": "uint256",
          "name": "",
          "type": "uint256"
        },
        {
          "internalType": "uint256",
          "name": "",
          "type": "uint256"
        },
        {
          "internalType": "address",
          "name": "",
          "type": "address"
        },
        {
          "internalType": "uint256",
          "name": "",
          "type": "uint256"
        },
        {
          "internalType": "string",
          "name": "",
          "type": "string"
        },
        {
          "internalType": "enum Auction.State",
          "name": "",
          "type": "uint8"
        },
        {
          "internalType": "address",
          "name": "",
          "type": "address"
        },
        {
          "internalType": "uint256",
          "name": "",
          "type": "uint256"
        }
      ],
      "stateMutability": "view",
      "type": "function"
    }
  ],
  "bytecode": "0x608060405260016008553480156200001657600080fd5b506040516200133b3803806200133b833981810160405260a08110156200003c57600080fd5b8101908080519060200190929190805160405193929190846401000000008211156200006757600080fd5b838201915060208201858111156200007e57600080fd5b82518660018202830111640100000000821117156200009c57600080fd5b8083526020830192505050908051906020019080838360005b83811015620000d2578082015181840152602081019050620000b5565b50505050905090810190601f168015620001005780820380516001836020036101000a031916815260200191505b506040526020018051906020019092919080519060200190929190805160405193929190846401000000008211156200013857600080fd5b838201915060208201858111156200014f57600080fd5b82518660018202830111640100000000821117156200016d57600080fd5b8083526020830192505050908051906020019080838360005b83811015620001a357808201518184015260208101905062000186565b50505050905090810190601f168015620001d15780820380516001836020036101000a031916815260200191505b50604052505050846000806101000a81548173ffffffffffffffffffffffffffffffffffffffff021916908373ffffffffffffffffffffffffffffffffffffffff160217905550836001908051906020019062000230929190620002ce565b5082600281905560068190555084600760006101000a81548173ffffffffffffffffffffffffffffffffffffffff021916908373ffffffffffffffffffffffffffffffffffffffff160217905550806003908051906020019062000296929190620002ce565b50816004819055506001600560006101000a81548160ff02191690836003811115620002be57fe5b021790555050505050506200037d565b828054600181600116156101000203166002900490600052602060002090601f016020900481019282601f106200031157805160ff191683800117855562000342565b8280016001018555821562000342579182015b828111156200034157825182559160200191906001019062000324565b5b50905062000351919062000355565b5090565b6200037a91905b80821115620003765760008160009055506001016200035c565b5090565b90565b610fae806200038d6000396000f3fe6080604052600436106100ae576000357c0100000000000000000000000000000000000000000000000000000000900480638fa8b790116100765780638fa8b790146101be57806391f90157146101ed578063c8287b5814610244578063cc0b0cfb146103d7578063ecfc7ecc14610402576100ae565b80630e8670e0146100b35780630fdb1c10146100de57806362ea82db146100f557806373ffb06e1461015a5780637fb4509914610185575b600080fd5b3480156100bf57600080fd5b506100c8610424565b6040518082815260200191505060405180910390f35b3480156100ea57600080fd5b506100f361042a565b005b34801561010157600080fd5b506101446004803603602081101561011857600080fd5b81019080803573ffffffffffffffffffffffffffffffffffffffff169060200190929190505050610791565b6040518082815260200191505060405180910390f35b34801561016657600080fd5b5061016f6107a9565b6040518082815260200191505060405180910390f35b34801561019157600080fd5b5061019a6107f0565b604051808260038111156101aa57fe5b60ff16815260200191505060405180910390f35b3480156101ca57600080fd5b506101d3610803565b604051808215151515815260200191505060405180910390f35b3480156101f957600080fd5b506102026108e3565b604051808273ffffffffffffffffffffffffffffffffffffffff1673ffffffffffffffffffffffffffffffffffffffff16815260200191505060405180910390f35b34801561025057600080fd5b50610259610909565b60405180806020018a81526020018981526020018873ffffffffffffffffffffffffffffffffffffffff1673ffffffffffffffffffffffffffffffffffffffff168152602001878152602001806020018660038111156102b557fe5b60ff1681526020018573ffffffffffffffffffffffffffffffffffffffff1673ffffffffffffffffffffffffffffffffffffffff16815260200184815260200183810383528c818151815260200191508051906020019080838360005b8381101561032d578082015181840152602081019050610312565b50505050905090810190601f16801561035a5780820380516001836020036101000a031916815260200191505b50838103825287818151815260200191508051906020019080838360005b83811015610393578082015181840152602081019050610378565b50505050905090810190601f1680156103c05780820380516001836020036101000a031916815260200191505b509b50505050505050505050505060405180910390f35b3480156103e357600080fd5b506103ec610ad8565b6040518082815260200191505060405180910390f35b61040a610ade565b604051808215151515815260200191505060405180910390f35b60065481565b6000809054906101000a900473ffffffffffffffffffffffffffffffffffffffff1673ffffffffffffffffffffffffffffffffffffffff163373ffffffffffffffffffffffffffffffffffffffff1614806104c457506000600960003373ffffffffffffffffffffffffffffffffffffffff1673ffffffffffffffffffffffffffffffffffffffff16815260200190815260200160002054115b6104cd57600080fd5b6000806003808111156104dc57fe5b600560009054906101000a900460ff1660038111156104f757fe5b141561054757339150600960003373ffffffffffffffffffffffffffffffffffffffff1673ffffffffffffffffffffffffffffffffffffffff168152602001908152602001600020549050610696565b6000809054906101000a900473ffffffffffffffffffffffffffffffffffffffff1673ffffffffffffffffffffffffffffffffffffffff163373ffffffffffffffffffffffffffffffffffffffff1614156105ca576000809054906101000a900473ffffffffffffffffffffffffffffffffffffffff1691506006549050610695565b600760009054906101000a900473ffffffffffffffffffffffffffffffffffffffff1673ffffffffffffffffffffffffffffffffffffffff163373ffffffffffffffffffffffffffffffffffffffff16141561064e57600760009054906101000a900473ffffffffffffffffffffffffffffffffffffffff16915060009050610694565b339150600960003373ffffffffffffffffffffffffffffffffffffffff1673ffffffffffffffffffffffffffffffffffffffff1681526020019081526020016000205490505b5b5b6000600960003373ffffffffffffffffffffffffffffffffffffffff1673ffffffffffffffffffffffffffffffffffffffff168152602001908152602001600020819055508173ffffffffffffffffffffffffffffffffffffffff166108fc829081150290604051600060405180830381858888f19350505050158015610721573d6000803e3d6000fd5b507f14b43ca4c63c5423006ad978eab8a14386476b52f1d4728070ea20a36f13e83b3342604051808373ffffffffffffffffffffffffffffffffffffffff1673ffffffffffffffffffffffffffffffffffffffff1681526020018281526020019250505060405180910390a15050565b60096020528060005260406000206000915090505481565b6000600960003373ffffffffffffffffffffffffffffffffffffffff1673ffffffffffffffffffffffffffffffffffffffff16815260200190815260200160002054905090565b600560009054906101000a900460ff1681565b60008060009054906101000a900473ffffffffffffffffffffffffffffffffffffffff1673ffffffffffffffffffffffffffffffffffffffff163373ffffffffffffffffffffffffffffffffffffffff161461085e57600080fd5b6004546108766103e842610d3f90919063ffffffff16565b111561088157600080fd5b6003600560006101000a81548160ff021916908360038111156108a057fe5b02179055507f829a8683c544ad289ce92d3ce06e9ebad69b18a6916e60ec766c2c217461d8e9426040518082815260200191505060405180910390a16001905090565b600760009054906101000a900473ffffffffffffffffffffffffffffffffffffffff1681565b6060600080600080606060008060006001600254600654600760009054906101000a900473ffffffffffffffffffffffffffffffffffffffff166008546003600560009054906101000a900460ff166000809054906101000a900473ffffffffffffffffffffffffffffffffffffffff16600454888054600181600116156101000203166002900480601f016020809104026020016040519081016040528092919081815260200182805460018160011615610100020316600290048015610a125780601f106109e757610100808354040283529160200191610a12565b820191906000526020600020905b8154815290600101906020018083116109f557829003601f168201915b50505050509850859550838054600181600116156101000203166002900480601f016020809104026020016040519081016040528092919081815260200182805460018160011615610100020316600290048015610ab15780601f10610a8657610100808354040283529160200191610ab1565b820191906000526020600020905b815481529060010190602001808311610a9457829003601f168201915b50505050509350819150985098509850985098509850985098509850909192939495969798565b60085481565b60008060009054906101000a900473ffffffffffffffffffffffffffffffffffffffff1673ffffffffffffffffffffffffffffffffffffffff163373ffffffffffffffffffffffffffffffffffffffff161415610b3a57600080fd5b60016003811115610b4757fe5b600560009054906101000a900460ff166003811115610b6257fe5b14610b6c57600080fd5b600454610b846103e842610d3f90919063ffffffff16565b1115610b8f57600080fd5b60003411610b9c57600080fd5b6000610bf034600960003373ffffffffffffffffffffffffffffffffffffffff1673ffffffffffffffffffffffffffffffffffffffff16815260200190815260200160002054610dc590919063ffffffff16565b90506006548111610c0057600080fd5b6000610c153483610e4d90919063ffffffff16565b1415610c3857610c316001600854610dc590919063ffffffff16565b6008819055505b80600960003373ffffffffffffffffffffffffffffffffffffffff1673ffffffffffffffffffffffffffffffffffffffff168152602001908152602001600020819055508060068190555033600760006101000a81548173ffffffffffffffffffffffffffffffffffffffff021916908373ffffffffffffffffffffffffffffffffffffffff1602179055507fea602cde4e1d0ea7d2d2404223fa40af5db611461db974bf307e94352d6eabb5333442604051808473ffffffffffffffffffffffffffffffffffffffff1673ffffffffffffffffffffffffffffffffffffffff168152602001838152602001828152602001935050505060405180910390a1600191505090565b600080831415610d525760009050610dbf565b6000828402905082848281610d6357fe5b0414610dba576040517f08c379a0000000000000000000000000000000000000000000000000000000008152600401808060200182810382526021815260200180610f586021913960400191505060405180910390fd5b809150505b92915050565b600080828401905083811015610e43576040517f08c379a000000000000000000000000000000000000000000000000000000000815260040180806020018281038252601b8152602001807f536166654d6174683a206164646974696f6e206f766572666c6f77000000000081525060200191505060405180910390fd5b8091505092915050565b6000610e8f83836040518060400160405280601e81526020017f536166654d6174683a207375627472616374696f6e206f766572666c6f770000815250610e97565b905092915050565b6000838311158290610f44576040517f08c379a00000000000000000000000000000000000000000000000000000000081526004018080602001828103825283818151815260200191508051906020019080838360005b83811015610f09578082015181840152602081019050610eee565b50505050905090810190601f168015610f365780820380516001836020036101000a031916815260200191505b509250505060405180910390fd5b506000838503905080915050939250505056fe536166654d6174683a206d756c7469706c69636174696f6e206f766572666c6f77a264697066735822122062f22cf3838cee1d942217ceeba21a2b5b89c6eae6e93679d699824461e4c71164736f6c63430006000033",
  "source": "// We will be using Solidity version 0.5.3\npragma solidity 0.6.0;\n// Importing OpenZeppelin's SafeMath Implementation\nimport \"./SafeMath.sol\";\n\ncontract AuctionBox{\n    Auction[] public auctions; \n\n    event CreateAuction(address auctionAddress, string tilte, uint256 time);\n   \n    function createAuction (\n        string memory _title,\n        uint _startPrice,\n        uint _endTime,\n        string memory _description\n        ) public{\n        require(_startPrice > 0);\n        // set the new instanc\n        Auction newAuction = new Auction(msg.sender, _title, _startPrice, _endTime ,_description);\n        // push the auction address to auctions array\n        auctions.push(newAuction);\n        emit CreateAuction(address(newAuction), _title ,now);\n    }\n    \n    function returnAllAuctions() public view returns(Auction[] memory){\n        return auctions;\n    }\n}\n\ncontract Auction {\n    using SafeMath for uint256;\n    \n    address payable private owner; \n    string title;\n    uint startPrice;\n    string description;\n    uint endTime;\n\n    enum State{Default, Running, Finalized, Canceled}\n    State public auctionState;\n\n    uint public highestPrice;\n    address payable public highestBidder;\n    uint256 public bidders = 1;\n    mapping(address => uint) public bids;\n\n    event PlaceBid(address sender, uint256 value, uint256 time);\n\n    event WithDraw(address sender, uint256 time);\n\n    event Canceled(uint256 time);\n    \n    /** @dev constructor to creat an auction\n      * @param _owner who call createAuction() in AuctionBox contract\n      * @param _title the title of the auction\n      * @param _startPrice the start price of the auction\n      * @param _description the description of the auction\n      */\n      \n    constructor(\n        address payable _owner,\n        string memory _title,\n        uint _startPrice,\n        uint _endTime,\n        string memory _description\n        \n        ) public {\n        // initialize auction\n        owner = _owner;\n        title = _title;\n        highestPrice = startPrice = _startPrice;\n        highestBidder = _owner;\n        description = _description;\n        endTime = _endTime;\n        auctionState = State.Running;\n    }\n    \n    modifier notOwner(){\n        require(msg.sender != owner);\n        _;\n    }\n    \n    /** @dev Function to place a bid\n      * @return true\n      */\n    \n    function placeBid() public payable notOwner returns(bool) {\n        require(auctionState == State.Running);\n        require(now.mul(1000) <= endTime);\n        require(msg.value > 0);\n        // update the current bid\n        // uint currentBid = bids[msg.sender] + msg.value;\n        uint currentBid = bids[msg.sender].add(msg.value);\n        require(currentBid > highestPrice);\n        if(currentBid.sub(msg.value) == 0) bidders = bidders.add(1);\n\n        // set the currentBid links with msg.sender\n        bids[msg.sender] = currentBid;\n        // update the highest price\n        highestPrice = currentBid;\n        highestBidder = msg.sender;\n\n        emit PlaceBid(msg.sender,msg.value,now);\n        \n        return true;\n    }\n    \n    function withDraw() public{\n        //the owner and bidders can finalize the auction.\n        require(msg.sender == owner || bids[msg.sender] > 0);\n        \n        address payable recipiant;\n        uint value;\n\n        if(auctionState == State.Canceled){\n            recipiant = msg.sender;\n            value = bids[msg.sender];\n        }else{\n            // owner can get highestPrice\n            if(msg.sender == owner){\n                recipiant = owner;\n                value = highestPrice;\n            }\n            // highestBidder can get no money\n            else if (msg.sender == highestBidder){\n                recipiant = highestBidder;\n                value = 0;\n            }\n            // Other bidders can get back the money \n            else {\n                recipiant = msg.sender;\n                value = bids[msg.sender];\n            }\n        }\n        \n        \n        // initialize the value\n        bids[msg.sender] = 0;\n        recipiant.transfer(value);\n        // auctionState = State.Finalized;\n\n        emit WithDraw(msg.sender, now);\n    }\n\n    function returnYourBid() public view returns( uint ){\n        return bids[msg.sender];\n    }\n\n    function cancelAuction()\n        public returns (bool success)\n    {\n        require(msg.sender == owner);\n        require(now.mul(1000) <= endTime);\n        auctionState = State.Canceled;\n        emit Canceled(now);\n        return true;\n    }\n    \n    /** @dev Function to return the contents od the auction\n      * @return the title of the auction\n      * @return the start price of the auction\n      * @return the description of the auction\n      * @return the state of the auction \n      */    \n    \n    function returnContents() public view returns(        \n        string memory,\n        uint,\n        uint,\n        address,\n        uint,\n        string memory,\n        State,\n        address,\n        uint\n        ) {\n        return (\n            title,\n            startPrice,\n            highestPrice,\n            highestBidder,\n            bidders,\n            description,\n            auctionState,\n            owner,\n            endTime\n        );\n    }\n    \n}",
  "sourcePath": "/Users/selab/Documents/github/Auction/contracts/AuctionBox.sol",
  "compiler": {
    "name": "solc",
    "version": "0.6.0+commit.26b70077.Emscripten.clang"
  },
  "schemaVersion": "3.3.2",
  "updatedAt": "2020-12-25T06:51:34.364Z",
  "devdoc": {
    "methods": {
      "constructor": {
        "details": "constructor to creat an auction",
        "params": {
          "_description": "the description of the auction",
          "_owner": "who call createAuction() in AuctionBox contract",
          "_startPrice": "the start price of the auction",
          "_title": "the title of the auction"
        }
      },
      "placeBid()": {
        "details": "Function to place a bid",
        "returns": {
          "_0": "true"
        }
      },
      "returnContents()": {
        "details": "Function to return the contents od the auction",
        "returns": {
          "_0": "the title of the auction",
          "_1": "the start price of the auction",
          "_2": "the description of the auction",
          "_3": "the state of the auction "
        }
      }
    }
  },
  "userdoc": {
    "methods": {}
  }
}